S00F000054696D65722E632E7372656383
S11300000C942A000C943C000C943C000C943C008E
S11300100C943C000C943C000C943C000C943C006C
S11300200C943C000C943C000C9434010C940D0191
S11300300C943C000C943C000C943C000C943C004C
S11300400C943C000C943C000C943C000C943C003C
S11300500C943C0011241FBECFE5D8E0DEBFCDBF19
S113006020E0A0E6B0E001C01D92A436B207E1F79B
S11300700E944B000C945B010C94000081E08BBB4C
S11300802FEF80E792E0215080409040E1F700C0DC
S113009000001BBA0895CF93DF9300D000D01F92C5
S11300A0CDB7DEB78FEF8ABB198285E08A83BE01A4
S11300B06F5F7F4F80E20E9468008EE390E09D8333
S11300C08C831B82CE0103960E94F2007894FFCFAA
S11300D0FB019081911108C095B5977F95BD95B5A9
S11300E09F7B95BD84BD1CC0913049F495B5986043
S11300F095BD95B59F7B95BD14BC83BD11C0923051
S113010039F485B5877F85BD85B5806485BD08C014
S1130110933031F485B5886085BD85B5806485BD2F
S1130120FB01818181110AC085B58E7F85BD85B5AE
S11301308D7F85BD85B58B7F85BD0895813051F454
S113014085B5816085BD85B58D7F85BD85B58B7F82
S113015085BD0895823051F485B58E7F85BD85B502
S1130160826085BD85B58B7F85BD0895833051F44C
S113017085B5816085BD85B5826085BD85B58B7F7C
S113018085BD0895843051F485B58E7F85BD85B5D0
S11301908D7F85BD85B5846085BD0895853051F416
S11301A085B5816085BD85B58D7F85BD85B5846048
S11301B085BD0895863051F485B58E7F85BD85B59E
S11301C0826085BD85B5846085BD0895873049F416
S11301D085B5816085BD85B5826085BD85B5846042
S11301E085BD0895FC01208121110AC027B7216033
S11301F027BF81819281909361008093600008956C
S1130200213051F427B7226027BFFC0181819281FC
S1130210909363008093620008951F920F920FB62B
S11302200F9211242F933F934F935F936F937F9378
S11302308F939F93AF93BF93EF93FF93E0916000ED
S1130240F09161000995FF91EF91BF91AF919F915A
S11302508F917F916F915F914F913F912F910F906B
S11302600FBE0F901F9018951F920F920FB60F920A
S113027011242F933F934F935F936F937F938F93A7
S11302809F93AF93BF93EF93FF93E0916200F0913C
S113029063000995FF91EF91BF91AF919F918F9169
S11302A07F916F915F914F913F912F910F900FBE6E
S10D02B00F901F901895F894FFCFEB
S9030000FC
