S00E00004750494F2E632E7372656356
S11300000C942A000C9434000C9434000C943400A6
S11300100C9434000C9434000C9434000C9434008C
S11300200C9434000C9434000C9434000C9434007C
S11300300C9434000C9434000C9434000C9434006C
S11300400C9434000C9434000C9434000C9434005C
S11300500C94340011241FBECFE5D8E0DEBFCDBF21
S11300600E946D000C9488000C940000613031F4FF
S1130070E82FF0E08FEF818380E00895611105C0DF
S1130080E82FF0E0118280E0089581E00895982F30
S113009081E0983008F480E0413069F4E62FF0E024
S11300A0428121E030E002C0220F331F9A95E2F72B
S11300B0242B2283089541110EC0E62FF0E04281E3
S11300C021E030E002C0220F331F9A95E2F7209519
S11300D024232283089581E0089561E089E30E9446
S11300E0360041E069E381E00E94470087EA91E637
S11300F00197F1F700C0000040E069E381E00E944D
S1130100470087EA91E60197F1F700C00000E9CFC4
S1070110F894FFCF8D
S9030000FC
